S0120000535550504C5920424F542E7372656320
S11300000C9434000C9446000C9446000C94460066
S11300100C9446000C9446000C9446000C94460044
S11300200C9446000C9446000C9446000C94460034
S11300300C9446000C9446000C9446000C94460024
S11300400C9446000C9446000C9448000C947D00DB
S11300500C9446000C9446000C9446000C94460004
S11300600C9446000C94460011241FBECFEFD8E038
S1130070DEBFCDBF22E0A0E0B1E001C01D92AC30F4
S1130080B207E1F70E94A9010C94D3010C9400007B
S11300901F920F920FB60F9211242F933F934F93F9
S11300A05F938F939F93EF93FF932091C0003091C0
S11300B0C60028718091020190E001968F779927FC
S11300C04091010150E08417950739F080930201B3
S11300D0FC01EB5FFE4F308301C022E0209300015E
S11300E0FF91EF919F918F915F914F913F912F914C
S11300F00F900FBE0F901F9018951F920F920FB67E
S11301000F9211248F939F93EF93FF939091040187
S113011080910301981779F08091030190E0019692
S11301208F77992780930301FC01EB57FE4F808161
S11301308093C60005C0E1ECF0E080818F7D808370
S1130140FF91EF919F918F910F900FBE0F901F9091
S11301501895F89410920401109203011092020170
S1130160109201017894992324F422E02093C00092
S11301709F779093C5008093C40088E98093C10061
S113018086E08093C2000895F894909102018091D2
S11301900101981304C0789480E091E00895789464
S11301A08091010190E001968F7799278093010156
S11301B0FC01EB5FFE4F20818091000190E0982FBD
S11301C08827820F911D0895F894809101018093EE
S11301D0020178940895219A299A08958AB184692C
S11301E08AB9209A08950E94C400911103C08823FB
S11301F019F008958FEF08958FEF0895ECE7F0E07C
S1130200808380818064808380818F7D8083EAE71E
S1130210F0E0808187608083808180688083808132
S113022080648083808186FDFDCF20917800809159
S1130230790090E0982F8827820F911D0895F894F3
S1130240A1EBB0E01C928FEF8093B2008093B300D7
S1130250E0EBF0E080818068808380818F7B808305
S11302608081816080838081826080838C91877F9C
S11302708C938C918C7F8C938C9184608C937894E8
S11302800895239A2B9A08950E9441010E941F0108
S113029008956817790784F4641775072CF45A9A3B
S11302A05C985F9A289808954617570784F45A9AD9
S11302B05C985F98289808958617970744F4641704
S11302C075072CF45A985C985F9A289808955A9860
S11302D05C985F9828980895259A2D9A08952D98EA
S11302E008952D9A089580910902833789F55A98C3
S11302F05C985F9828980E9471012FEF83ED90E33A
S1130300215080409040E1F700C000000E946F013E
S11303102FEF83ED90E3215080409040E1F700C03F
S113032000000E9471012FEF83ED90E32150804083
S11303309040E1F700C000000E94EB002FEF83EC37
S113034099E0215080409040E1F700C00000F4CFD4
S1130350089587E690E00E94A9000E94E4000E94AC
S1130360440186E98093B3000E94EE000E946C0170
S11303700E94F3008D36E1F780E00E94FE00EC015C
S113038081E00E94FE008C0182E00E94FE00AC012C
S1130390B801CE010E9449010E94F300833761F73E
S10D03A00E947301FDCFF894FFCF13
S9030000FC
